{"abi":[{"type":"constructor","inputs":[{"name":"_helperAddr","type":"address","internalType":"address payable"}],"stateMutability":"nonpayable"},{"type":"function","name":"fetchPrice","inputs":[{"name":"token","type":"string","internalType":"string"}],"outputs":[{"name":"","type":"string","internalType":"string"}],"stateMutability":"nonpayable"},{"type":"function","name":"tokenPrices","inputs":[{"name":"","type":"string","internalType":"string"}],"outputs":[{"name":"price","type":"string","internalType":"string"},{"name":"timestamp","type":"uint256","internalType":"uint256"}],"stateMutability":"view"}],"bytecode":{"object":"0x60a0604052348015600f57600080fd5b50604051610843380380610843833981016040819052602c91603c565b6001600160a01b0316608052606a565b600060208284031215604d57600080fd5b81516001600160a01b0381168114606357600080fd5b9392505050565b6080516107bf6100846000396000608b01526107bf6000f3fe608060405234801561001057600080fd5b50600436106100365760003560e01c80639782dd2a1461003b578063e19cb38014610064575b600080fd5b61004e6100493660046102e9565b610085565b60405161005b91906103ab565b60405180910390f35b610077610072366004610434565b61023a565b60405161005b9291906104b4565b606060007f000000000000000000000000000000000000000000000000000000000000000090506060600085856040516024016100c39291906104d6565b60408051601f19818403018152918152602080830180516001600160e01b031663134f716b60e01b179052815133918101919091529192506000910160405160208183030381529060405261011790610505565b9050600080856001600160a01b031663839f845784866040518363ffffffff1660e01b815260040161014a92919061052c565b6000604051808303816000875af1158015610169573d6000803e3d6000fd5b505050506040513d6000823e601f3d908101601f19168201604052610191919081019061057d565b915091508163ffffffff166000146101c6578060405162461bcd60e51b81526004016101bd91906103ab565b60405180910390fd5b808060200190518101906101da91906105eb565b945060405180604001604052808681526020014281525060008a8a604051610203929190610634565b9081526040519081900360200190208151819061022090826106c9565b506020820151816001015590505050505050505092915050565b805160208183018101805160008252928201919093012091528054819061026090610644565b80601f016020809104026020016040519081016040528092919081815260200182805461028c90610644565b80156102d95780601f106102ae576101008083540402835291602001916102d9565b820191906000526020600020905b8154815290600101906020018083116102bc57829003601f168201915b5050505050908060010154905082565b600080602083850312156102fc57600080fd5b823567ffffffffffffffff8082111561031457600080fd5b818501915085601f83011261032857600080fd5b81358181111561033757600080fd5b86602082850101111561034957600080fd5b60209290920196919550909350505050565b60005b8381101561037657818101518382015260200161035e565b50506000910152565b6000815180845261039781602086016020860161035b565b601f01601f19169290920160200192915050565b6020815260006103be602083018461037f565b9392505050565b634e487b7160e01b600052604160045260246000fd5b604051601f8201601f1916810167ffffffffffffffff81118282101715610404576104046103c5565b604052919050565b600067ffffffffffffffff821115610426576104266103c5565b50601f01601f191660200190565b60006020828403121561044657600080fd5b813567ffffffffffffffff81111561045d57600080fd5b8201601f8101841361046e57600080fd5b803561048161047c8261040c565b6103db565b81815285602083850101111561049657600080fd5b81602084016020830137600091810160200191909152949350505050565b6040815260006104c7604083018561037f565b90508260208301529392505050565b60208152816020820152818360408301376000818301604090810191909152601f909201601f19160101919050565b80516020808301519190811015610526576000198160200360031b1b821691505b50919050565b828152604060208201526000610545604083018461037f565b949350505050565b600061055b61047c8461040c565b905082815283838301111561056f57600080fd5b6103be83602083018461035b565b6000806040838503121561059057600080fd5b825163ffffffff811681146105a457600080fd5b602084015190925067ffffffffffffffff8111156105c157600080fd5b8301601f810185136105d257600080fd5b6105e18582516020840161054d565b9150509250929050565b6000602082840312156105fd57600080fd5b815167ffffffffffffffff81111561061457600080fd5b8201601f8101841361062557600080fd5b6105458482516020840161054d565b8183823760009101908152919050565b600181811c9082168061065857607f821691505b60208210810361052657634e487b7160e01b600052602260045260246000fd5b601f8211156106c4576000816000526020600020601f850160051c810160208610156106a15750805b601f850160051c820191505b818110156106c0578281556001016106ad565b5050505b505050565b815167ffffffffffffffff8111156106e3576106e36103c5565b6106f7816106f18454610644565b84610678565b602080601f83116001811461072c57600084156107145750858301515b600019600386901b1c1916600185901b1785556106c0565b600085815260208120601f198616915b8281101561075b5788860151825594840194600190910190840161073c565b50858210156107795787850151600019600388901b60f8161c191681555b5050505050600190811b0190555056fea2646970667358221220bb323e1ea3a70ae97d4e135501400084a709700d828fe97a6e2aac5ab453bb2e64736f6c63430008190033","linkReferences":{}},"methodIdentifiers":{"fetchPrice(string)":"9782dd2a","tokenPrices(string)":"e19cb380"},"id":0}