{"abi":[{"type":"constructor","inputs":[{"name":"_helperAddr","type":"address","internalType":"address payable"}],"stateMutability":"nonpayable"},{"type":"function","name":"fetchPrice","inputs":[{"name":"token","type":"string","internalType":"string"}],"outputs":[],"stateMutability":"nonpayable"},{"type":"function","name":"getTest","inputs":[{"name":"token","type":"string","internalType":"string"}],"outputs":[],"stateMutability":"nonpayable"},{"type":"function","name":"tokenPrices","inputs":[{"name":"","type":"string","internalType":"string"}],"outputs":[{"name":"price","type":"string","internalType":"string"},{"name":"timestamp","type":"uint256","internalType":"uint256"}],"stateMutability":"view"}],"bytecode":{"object":"0x60a0604052348015600f57600080fd5b506040516108bc3803806108bc833981016040819052602c91603c565b6001600160a01b0316608052606a565b600060208284031215604d57600080fd5b81516001600160a01b0381168114606357600080fd5b9392505050565b608051610837610085600039600061010201526108376000f3fe608060405234801561001057600080fd5b50600436106100415760003560e01c806365543de0146100465780639782dd2a1461005b578063e19cb3801461006e575b600080fd5b61005961005436600461035e565b610098565b005b61005961006936600461035e565b6100fe565b61008161007c36600461043f565b6102af565b60405161008f92919061050f565b60405180910390f35b60408051608081018252600281830190815261031360f41b6060830152815242602082015290516000906100cf9085908590610531565b908152604051908190036020019020815181906100ec90826105cc565b50602082015181600101559050505050565b60007f0000000000000000000000000000000000000000000000000000000000000000905060606000848460405160240161013a92919061068c565b60408051601f19818403018152918152602080830180516001600160e01b031663134f716b60e01b179052815133918101919091529192506000910160405160208183030381529060405261018e906106bb565b9050600080856001600160a01b031663839f845784866040518363ffffffff1660e01b81526004016101c19291906106df565b6000604051808303816000875af11580156101e0573d6000803e3d6000fd5b505050506040513d6000823e601f3d908101601f191682016040526102089190810190610737565b915091508163ffffffff1660001461023d578060405162461bcd60e51b815260040161023491906107a5565b60405180910390fd5b8080602001905181019061025191906107b8565b94506040518060400160405280868152602001428152506000898960405161027a929190610531565b9081526040519081900360200190208151819061029790826105cc565b50602082015181600101559050505050505050505050565b80516020818301810180516000825292820191909301209152805481906102d590610541565b80601f016020809104026020016040519081016040528092919081815260200182805461030190610541565b801561034e5780601f106103235761010080835404028352916020019161034e565b820191906000526020600020905b81548152906001019060200180831161033157829003601f168201915b5050505050908060010154905082565b6000806020838503121561037157600080fd5b823567ffffffffffffffff8082111561038957600080fd5b818501915085601f83011261039d57600080fd5b8135818111156103ac57600080fd5b8660208285010111156103be57600080fd5b60209290920196919550909350505050565b634e487b7160e01b600052604160045260246000fd5b604051601f8201601f1916810167ffffffffffffffff8111828210171561040f5761040f6103d0565b604052919050565b600067ffffffffffffffff821115610431576104316103d0565b50601f01601f191660200190565b60006020828403121561045157600080fd5b813567ffffffffffffffff81111561046857600080fd5b8201601f8101841361047957600080fd5b803561048c61048782610417565b6103e6565b8181528560208385010111156104a157600080fd5b81602084016020830137600091810160200191909152949350505050565b60005b838110156104da5781810151838201526020016104c2565b50506000910152565b600081518084526104fb8160208601602086016104bf565b601f01601f19169290920160200192915050565b60408152600061052260408301856104e3565b90508260208301529392505050565b8183823760009101908152919050565b600181811c9082168061055557607f821691505b60208210810361057557634e487b7160e01b600052602260045260246000fd5b50919050565b601f8211156105c7576000816000526020600020601f850160051c810160208610156105a45750805b601f850160051c820191505b818110156105c3578281556001016105b0565b5050505b505050565b815167ffffffffffffffff8111156105e6576105e66103d0565b6105fa816105f48454610541565b8461057b565b602080601f83116001811461062f57600084156106175750858301515b600019600386901b1c1916600185901b1785556105c3565b600085815260208120601f198616915b8281101561065e5788860151825594840194600190910190840161063f565b508582101561067c5787850151600019600388901b60f8161c191681555b5050505050600190811b01905550565b60208152816020820152818360408301376000818301604090810191909152601f909201601f19160101919050565b805160208083015191908110156105755760001960209190910360031b1b16919050565b8281526040602082015260006106f860408301846104e3565b949350505050565b600061070e61048784610417565b905082815283838301111561072257600080fd5b6107308360208301846104bf565b9392505050565b6000806040838503121561074a57600080fd5b825163ffffffff8116811461075e57600080fd5b602084015190925067ffffffffffffffff81111561077b57600080fd5b8301601f8101851361078c57600080fd5b61079b85825160208401610700565b9150509250929050565b60208152600061073060208301846104e3565b6000602082840312156107ca57600080fd5b815167ffffffffffffffff8111156107e157600080fd5b8201601f810184136107f257600080fd5b6106f88482516020840161070056fea2646970667358221220868de4ea657eafcd9e46e6572b0efd74addda6b8c2f6780bc0cc2e8edee6661f64736f6c63430008190033","linkReferences":{}},"methodIdentifiers":{"fetchPrice(string)":"9782dd2a","getTest(string)":"65543de0","tokenPrices(string)":"e19cb380"},"id":1}